{
  "abi": [
    {
      "inputs": [
        {
          "internalType": "address",
          "name": "_governor",
          "type": "address"
        }
      ],
      "stateMutability": "nonpayable",
      "type": "constructor"
    },
    {
      "inputs": [
        {
          "internalType": "address",
          "name": "spender",
          "type": "address"
        },
        {
          "internalType": "uint256",
          "name": "allowance",
          "type": "uint256"
        },
        {
          "internalType": "uint256",
          "name": "needed",
          "type": "uint256"
        }
      ],
      "name": "ERC20InsufficientAllowance",
      "type": "error"
    },
    {
      "inputs": [
        {
          "internalType": "address",
          "name": "sender",
          "type": "address"
        },
        {
          "internalType": "uint256",
          "name": "balance",
          "type": "uint256"
        },
        {
          "internalType": "uint256",
          "name": "needed",
          "type": "uint256"
        }
      ],
      "name": "ERC20InsufficientBalance",
      "type": "error"
    },
    {
      "inputs": [
        {
          "internalType": "address",
          "name": "approver",
          "type": "address"
        }
      ],
      "name": "ERC20InvalidApprover",
      "type": "error"
    },
    {
      "inputs": [
        {
          "internalType": "address",
          "name": "receiver",
          "type": "address"
        }
      ],
      "name": "ERC20InvalidReceiver",
      "type": "error"
    },
    {
      "inputs": [
        {
          "internalType": "address",
          "name": "sender",
          "type": "address"
        }
      ],
      "name": "ERC20InvalidSender",
      "type": "error"
    },
    {
      "inputs": [
        {
          "internalType": "address",
          "name": "spender",
          "type": "address"
        }
      ],
      "name": "ERC20InvalidSpender",
      "type": "error"
    },
    {
      "inputs": [],
      "name": "OrcsToken__BatchTransferArrayMismatch",
      "type": "error"
    },
    {
      "inputs": [],
      "name": "OrcsToken__ETHTransferFailed",
      "type": "error"
    },
    {
      "inputs": [],
      "name": "OrcsToken__InsufficientPayment",
      "type": "error"
    },
    {
      "inputs": [],
      "name": "OrcsToken__NotEnoughTokensToRedeem",
      "type": "error"
    },
    {
      "inputs": [],
      "name": "OrcsToken__OnlyGovernor",
      "type": "error"
    },
    {
      "inputs": [],
      "name": "OrcsToken__OnlyWholeTokenPurchases",
      "type": "error"
    },
    {
      "inputs": [],
      "name": "OrcsToken__PostAirdropValuesNotSet",
      "type": "error"
    },
    {
      "anonymous": false,
      "inputs": [
        {
          "indexed": true,
          "internalType": "address",
          "name": "owner",
          "type": "address"
        },
        {
          "indexed": true,
          "internalType": "address",
          "name": "spender",
          "type": "address"
        },
        {
          "indexed": false,
          "internalType": "uint256",
          "name": "value",
          "type": "uint256"
        }
      ],
      "name": "Approval",
      "type": "event"
    },
    {
      "anonymous": false,
      "inputs": [
        {
          "indexed": false,
          "internalType": "address[]",
          "name": "recipients",
          "type": "address[]"
        },
        {
          "indexed": false,
          "internalType": "uint256[]",
          "name": "amounts",
          "type": "uint256[]"
        }
      ],
      "name": "BatchTransfer",
      "type": "event"
    },
    {
      "anonymous": false,
      "inputs": [
        {
          "indexed": false,
          "internalType": "address",
          "name": "recipient",
          "type": "address"
        },
        {
          "indexed": false,
          "internalType": "address",
          "name": "token",
          "type": "address"
        },
        {
          "indexed": false,
          "internalType": "uint256",
          "name": "amount",
          "type": "uint256"
        }
      ],
      "name": "ERC20Withdrawn",
      "type": "event"
    },
    {
      "anonymous": false,
      "inputs": [
        {
          "indexed": false,
          "internalType": "address",
          "name": "recipient",
          "type": "address"
        },
        {
          "indexed": false,
          "internalType": "uint256",
          "name": "amount",
          "type": "uint256"
        }
      ],
      "name": "ETHWithdrawn",
      "type": "event"
    },
    {
      "anonymous": false,
      "inputs": [
        {
          "indexed": false,
          "internalType": "address",
          "name": "airdropTokenAddress",
          "type": "address"
        },
        {
          "indexed": false,
          "internalType": "uint256",
          "name": "redeemValue",
          "type": "uint256"
        },
        {
          "indexed": false,
          "internalType": "uint256",
          "name": "remainingSupplyBurned",
          "type": "uint256"
        }
      ],
      "name": "PostAirdropValueSet",
      "type": "event"
    },
    {
      "anonymous": false,
      "inputs": [
        {
          "indexed": false,
          "internalType": "uint256",
          "name": "newPrice",
          "type": "uint256"
        }
      ],
      "name": "PriceChanged",
      "type": "event"
    },
    {
      "anonymous": false,
      "inputs": [
        {
          "indexed": true,
          "internalType": "address",
          "name": "buyer",
          "type": "address"
        },
        {
          "indexed": false,
          "internalType": "uint256",
          "name": "amount",
          "type": "uint256"
        },
        {
          "indexed": false,
          "internalType": "uint256",
          "name": "value",
          "type": "uint256"
        }
      ],
      "name": "TokensPurchased",
      "type": "event"
    },
    {
      "anonymous": false,
      "inputs": [
        {
          "indexed": true,
          "internalType": "address",
          "name": "owner",
          "type": "address"
        },
        {
          "indexed": false,
          "internalType": "uint256",
          "name": "tokensRedeemed",
          "type": "uint256"
        },
        {
          "indexed": false,
          "internalType": "uint256",
          "name": "airdropTokensReceived",
          "type": "uint256"
        }
      ],
      "name": "TokensRedeemed",
      "type": "event"
    },
    {
      "anonymous": false,
      "inputs": [
        {
          "indexed": true,
          "internalType": "address",
          "name": "from",
          "type": "address"
        },
        {
          "indexed": true,
          "internalType": "address",
          "name": "to",
          "type": "address"
        },
        {
          "indexed": false,
          "internalType": "uint256",
          "name": "value",
          "type": "uint256"
        }
      ],
      "name": "Transfer",
      "type": "event"
    },
    {
      "inputs": [],
      "name": "GOVERNOR",
      "outputs": [
        {
          "internalType": "address",
          "name": "",
          "type": "address"
        }
      ],
      "stateMutability": "view",
      "type": "function"
    },
    {
      "inputs": [],
      "name": "airdropToken",
      "outputs": [
        {
          "internalType": "address",
          "name": "",
          "type": "address"
        }
      ],
      "stateMutability": "view",
      "type": "function"
    },
    {
      "inputs": [
        {
          "internalType": "address",
          "name": "owner",
          "type": "address"
        },
        {
          "internalType": "address",
          "name": "spender",
          "type": "address"
        }
      ],
      "name": "allowance",
      "outputs": [
        {
          "internalType": "uint256",
          "name": "",
          "type": "uint256"
        }
      ],
      "stateMutability": "view",
      "type": "function"
    },
    {
      "inputs": [
        {
          "internalType": "address",
          "name": "spender",
          "type": "address"
        },
        {
          "internalType": "uint256",
          "name": "value",
          "type": "uint256"
        }
      ],
      "name": "approve",
      "outputs": [
        {
          "internalType": "bool",
          "name": "",
          "type": "bool"
        }
      ],
      "stateMutability": "nonpayable",
      "type": "function"
    },
    {
      "inputs": [
        {
          "internalType": "address",
          "name": "account",
          "type": "address"
        }
      ],
      "name": "balanceOf",
      "outputs": [
        {
          "internalType": "uint256",
          "name": "",
          "type": "uint256"
        }
      ],
      "stateMutability": "view",
      "type": "function"
    },
    {
      "inputs": [
        {
          "internalType": "address[]",
          "name": "_recipients",
          "type": "address[]"
        },
        {
          "internalType": "uint256[]",
          "name": "_amounts",
          "type": "uint256[]"
        }
      ],
      "name": "batchTransfer",
      "outputs": [],
      "stateMutability": "nonpayable",
      "type": "function"
    },
    {
      "inputs": [],
      "name": "decimals",
      "outputs": [
        {
          "internalType": "uint8",
          "name": "",
          "type": "uint8"
        }
      ],
      "stateMutability": "view",
      "type": "function"
    },
    {
      "inputs": [],
      "name": "maxSupply",
      "outputs": [
        {
          "internalType": "uint256",
          "name": "",
          "type": "uint256"
        }
      ],
      "stateMutability": "view",
      "type": "function"
    },
    {
      "inputs": [],
      "name": "name",
      "outputs": [
        {
          "internalType": "string",
          "name": "",
          "type": "string"
        }
      ],
      "stateMutability": "view",
      "type": "function"
    },
    {
      "inputs": [
        {
          "internalType": "uint256",
          "name": "_amount",
          "type": "uint256"
        }
      ],
      "name": "purchaseTokens",
      "outputs": [],
      "stateMutability": "payable",
      "type": "function"
    },
    {
      "inputs": [
        {
          "internalType": "uint256",
          "name": "_amount",
          "type": "uint256"
        }
      ],
      "name": "redeemTokens",
      "outputs": [],
      "stateMutability": "nonpayable",
      "type": "function"
    },
    {
      "inputs": [],
      "name": "redeemValue",
      "outputs": [
        {
          "internalType": "uint256",
          "name": "",
          "type": "uint256"
        }
      ],
      "stateMutability": "view",
      "type": "function"
    },
    {
      "inputs": [
        {
          "internalType": "address",
          "name": "_airdropToken",
          "type": "address"
        },
        {
          "internalType": "uint256",
          "name": "_redeemValue",
          "type": "uint256"
        }
      ],
      "name": "setPostAirdropValue",
      "outputs": [],
      "stateMutability": "nonpayable",
      "type": "function"
    },
    {
      "inputs": [
        {
          "internalType": "uint256",
          "name": "_newPrice",
          "type": "uint256"
        }
      ],
      "name": "setTokenPrice",
      "outputs": [],
      "stateMutability": "nonpayable",
      "type": "function"
    },
    {
      "inputs": [],
      "name": "symbol",
      "outputs": [
        {
          "internalType": "string",
          "name": "",
          "type": "string"
        }
      ],
      "stateMutability": "view",
      "type": "function"
    },
    {
      "inputs": [],
      "name": "tokenPrice",
      "outputs": [
        {
          "internalType": "uint256",
          "name": "",
          "type": "uint256"
        }
      ],
      "stateMutability": "view",
      "type": "function"
    },
    {
      "inputs": [],
      "name": "totalSupply",
      "outputs": [
        {
          "internalType": "uint256",
          "name": "",
          "type": "uint256"
        }
      ],
      "stateMutability": "view",
      "type": "function"
    },
    {
      "inputs": [
        {
          "internalType": "address",
          "name": "to",
          "type": "address"
        },
        {
          "internalType": "uint256",
          "name": "value",
          "type": "uint256"
        }
      ],
      "name": "transfer",
      "outputs": [
        {
          "internalType": "bool",
          "name": "",
          "type": "bool"
        }
      ],
      "stateMutability": "nonpayable",
      "type": "function"
    },
    {
      "inputs": [
        {
          "internalType": "address",
          "name": "from",
          "type": "address"
        },
        {
          "internalType": "address",
          "name": "to",
          "type": "address"
        },
        {
          "internalType": "uint256",
          "name": "value",
          "type": "uint256"
        }
      ],
      "name": "transferFrom",
      "outputs": [
        {
          "internalType": "bool",
          "name": "",
          "type": "bool"
        }
      ],
      "stateMutability": "nonpayable",
      "type": "function"
    },
    {
      "inputs": [
        {
          "internalType": "address",
          "name": "_recipient",
          "type": "address"
        },
        {
          "internalType": "address",
          "name": "_token",
          "type": "address"
        },
        {
          "internalType": "uint256",
          "name": "_amount",
          "type": "uint256"
        }
      ],
      "name": "withdrawERC20",
      "outputs": [],
      "stateMutability": "nonpayable",
      "type": "function"
    },
    {
      "inputs": [
        {
          "internalType": "address",
          "name": "_recipient",
          "type": "address"
        },
        {
          "internalType": "uint256",
          "name": "_amount",
          "type": "uint256"
        }
      ],
      "name": "withdrawETH",
      "outputs": [],
      "stateMutability": "nonpayable",
      "type": "function"
    },
    {
      "stateMutability": "payable",
      "type": "receive"
    }
  ],
  "bytecode": {
    "object": "0x60a06040526c0c9f2c9cd04674edea400000006005556409502f90006006553480156200002b57600080fd5b506040516200170c3803806200170c8339810160408190526200004e9162000246565b60405180604001604052806005815260200164244f72637360d81b81525060405180604001604052806005815260200164244f52435360d81b81525081600390816200009b91906200031d565b506004620000aa82826200031d565b5050506001600160a01b038116608052600554620000ca903090620000d1565b5062000411565b6001600160a01b038216620001015760405163ec442f0560e01b8152600060048201526024015b60405180910390fd5b6200010f6000838362000113565b5050565b6001600160a01b03831662000142578060026000828254620001369190620003e9565b90915550620001b69050565b6001600160a01b03831660009081526020819052604090205481811015620001975760405163391434e360e21b81526001600160a01b03851660048201526024810182905260448101839052606401620000f8565b6001600160a01b03841660009081526020819052604090209082900390555b6001600160a01b038216620001d457600280548290039055620001f3565b6001600160a01b03821660009081526020819052604090208054820190555b816001600160a01b0316836001600160a01b03167fddf252ad1be2c89b69c2b068fc378daa952ba7f163c4a11628f55a4df523b3ef836040516200023991815260200190565b60405180910390a3505050565b6000602082840312156200025957600080fd5b81516001600160a01b03811681146200027157600080fd5b9392505050565b634e487b7160e01b600052604160045260246000fd5b600181811c90821680620002a357607f821691505b602082108103620002c457634e487b7160e01b600052602260045260246000fd5b50919050565b601f8211156200031857600081815260208120601f850160051c81016020861015620002f35750805b601f850160051c820191505b818110156200031457828155600101620002ff565b5050505b505050565b81516001600160401b0381111562000339576200033962000278565b62000351816200034a84546200028e565b84620002ca565b602080601f831160018114620003895760008415620003705750858301515b600019600386901b1c1916600185901b17855562000314565b600085815260208120601f198616915b82811015620003ba5788860151825594840194600190910190840162000399565b5085821015620003d95787850151600019600388901b60f8161c191681555b5050505050600190811b01905550565b808201808211156200040b57634e487b7160e01b600052601160045260246000fd5b92915050565b6080516112bc620004506000396000818161029c015281816104ff0152818161060d0152818161070901528181610858015261092401526112bc6000f3fe60806040526004361061012e5760003560e01c806370a08231116100ab5780638e0de8ba1161006f5780638e0de8ba1461035d57806395d89b4114610373578063a6e158f814610388578063a9059cbb146103a8578063d5abeb01146103c8578063dd62ed3e146103de57600080fd5b806370a08231146102be5780637b97008d146102f45780637e81f5dd146103075780637ff9b5961461032757806388d695b21461033d57600080fd5b806344004cc1116100f257806344004cc1146101f05780634782f779146102125780634d06068a146102325780636a61e5fc1461026a5780636dc0ae221461028a57600080fd5b806306fdde031461013a578063095ea7b31461016557806318160ddd1461019557806323b872dd146101b4578063313ce567146101d457600080fd5b3661013557005b600080fd5b34801561014657600080fd5b5061014f610424565b60405161015c9190610f0b565b60405180910390f35b34801561017157600080fd5b50610185610180366004610f75565b6104b6565b604051901515815260200161015c565b3480156101a157600080fd5b506002545b60405190815260200161015c565b3480156101c057600080fd5b506101856101cf366004610f9f565b6104d0565b3480156101e057600080fd5b506040516012815260200161015c565b3480156101fc57600080fd5b5061021061020b366004610f9f565b6104f4565b005b34801561021e57600080fd5b5061021061022d366004610f75565b610602565b34801561023e57600080fd5b50600754610252906001600160a01b031681565b6040516001600160a01b03909116815260200161015c565b34801561027657600080fd5b50610210610285366004610fdb565b6106fe565b34801561029657600080fd5b506102527f000000000000000000000000000000000000000000000000000000000000000081565b3480156102ca57600080fd5b506101a66102d9366004610ff4565b6001600160a01b031660009081526020819052604090205490565b610210610302366004610fdb565b610782565b34801561031357600080fd5b50610210610322366004610f75565b61084d565b34801561033357600080fd5b506101a660065481565b34801561034957600080fd5b50610210610358366004611062565b610919565b34801561036957600080fd5b506101a660085481565b34801561037f57600080fd5b5061014f610a2a565b34801561039457600080fd5b506102106103a3366004610fdb565b610a39565b3480156103b457600080fd5b506101856103c3366004610f75565b610bd0565b3480156103d457600080fd5b506101a660055481565b3480156103ea57600080fd5b506101a66103f93660046110ce565b6001600160a01b03918216600090815260016020908152604080832093909416825291909152205490565b60606003805461043390611101565b80601f016020809104026020016040519081016040528092919081815260200182805461045f90611101565b80156104ac5780601f10610481576101008083540402835291602001916104ac565b820191906000526020600020905b81548152906001019060200180831161048f57829003601f168201915b5050505050905090565b6000336104c4818585610bde565b60019150505b92915050565b6000336104de858285610bf0565b6104e9858585610c73565b506001949350505050565b336001600160a01b037f0000000000000000000000000000000000000000000000000000000000000000161461053d576040516349ca910f60e11b815260040160405180910390fd5b60405163a9059cbb60e01b81526001600160a01b0384811660048301526024820183905283169063a9059cbb906044016020604051808303816000875af115801561058c573d6000803e3d6000fd5b505050506040513d601f19601f820116820180604052508101906105b0919061113b565b50604080516001600160a01b038086168252841660208201529081018290527fbfed55bdcd242e3dd0f60ddd7d1e87c67f61c34cd9527b3e6455d841b1025362906060015b60405180910390a1505050565b336001600160a01b037f0000000000000000000000000000000000000000000000000000000000000000161461064b576040516349ca910f60e11b815260040160405180910390fd5b6000826001600160a01b03168260405160006040518083038185875af1925050503d8060008114610698576040519150601f19603f3d011682016040523d82523d6000602084013e61069d565b606091505b50509050806106bf576040516321ab5cfd60e01b815260040160405180910390fd5b604080516001600160a01b0385168152602081018490527f94b2de810873337ed265c5f8cf98c9cffefa06b8607f9a2f1fbaebdfbcfbef1c91016105f5565b336001600160a01b037f00000000000000000000000000000000000000000000000000000000000000001614610747576040516349ca910f60e11b815260040160405180910390fd5b60068190556040518181527fa6dc15bdb68da224c66db4b3838d9a2b205138e8cff6774e57d0af91e196d6229060200160405180910390a150565b670de0b6b3a76400008110806107a857506107a5670de0b6b3a764000082611173565b15155b156107c657604051632980018360e01b815260040160405180910390fd5b6006546107db670de0b6b3a76400008361119d565b6107e591906111b1565b34101561080557604051639b77ea2160e01b815260040160405180910390fd5b610810303383610c73565b6040805182815234602082015233917f8fafebcaf9d154343dad25669bfa277f4fbacd7ac6b0c4fed522580e040a0f33910160405180910390a250565b336001600160a01b037f00000000000000000000000000000000000000000000000000000000000000001614610896576040516349ca910f60e11b815260040160405180910390fd5b600780546001600160a01b0319166001600160a01b03841617905560088190553060009081526020819052604081205490506108d23082610cd2565b604080516001600160a01b0385168152602081018490529081018290527ff590da509d35448ea28c71b6b2c1129552b9d90f73d08f35bef7d16e8b7e183f906060016105f5565b336001600160a01b037f00000000000000000000000000000000000000000000000000000000000000001614610962576040516349ca910f60e11b815260040160405180910390fd5b828114610982576040516304a24c7760e51b815260040160405180910390fd5b60005b838110156109e6576109d6308686848181106109a3576109a36111c8565b90506020020160208101906109b89190610ff4565b8585858181106109ca576109ca6111c8565b90506020020135610c73565b6109df816111de565b9050610985565b507f2a8b481c4fd6b79532b02dcb3d102185cbfaf1fe525ae1283184c2fb15cbca1d84848484604051610a1c94939291906111f7565b60405180910390a150505050565b60606004805461043390611101565b600854600003610a5c57604051632b95504160e21b815260040160405180910390fd5b600854811015610a7f57604051631210c7bf60e21b815260040160405180910390fd5b600060085482610a8f919061119d565b9050610a9b3383610cd2565b6007546001600160a01b0316610b1a57604051600090339083908381818185875af1925050503d8060008114610aed576040519150601f19603f3d011682016040523d82523d6000602084013e610af2565b606091505b5050905080610b14576040516321ab5cfd60e01b815260040160405180910390fd5b50610b91565b60075460405163a9059cbb60e01b8152336004820152602481018390526001600160a01b039091169063a9059cbb906044016020604051808303816000875af1158015610b6b573d6000803e3d6000fd5b505050506040513d601f19601f82011682018060405250810190610b8f919061113b565b505b604080518381526020810183905233917fd171fb179b26c49e23fe46eddd44d3048a1ad277b62144ac0725fbcf1dbf6d52910160405180910390a25050565b6000336104c4818585610c73565b610beb8383836001610d0c565b505050565b6001600160a01b038381166000908152600160209081526040808320938616835292905220546000198114610c6d5781811015610c5e57604051637dc7a0d960e11b81526001600160a01b038416600482015260248101829052604481018390526064015b60405180910390fd5b610c6d84848484036000610d0c565b50505050565b6001600160a01b038316610c9d57604051634b637e8f60e11b815260006004820152602401610c55565b6001600160a01b038216610cc75760405163ec442f0560e01b815260006004820152602401610c55565b610beb838383610de1565b6001600160a01b038216610cfc57604051634b637e8f60e11b815260006004820152602401610c55565b610d0882600083610de1565b5050565b6001600160a01b038416610d365760405163e602df0560e01b815260006004820152602401610c55565b6001600160a01b038316610d6057604051634a1406b160e11b815260006004820152602401610c55565b6001600160a01b0380851660009081526001602090815260408083209387168352929052208290558015610c6d57826001600160a01b0316846001600160a01b03167f8c5be1e5ebec7d5bd14f71427d1e84f3dd0314c0f7b2291e5b200ac8c7c3b92584604051610dd391815260200190565b60405180910390a350505050565b6001600160a01b038316610e0c578060026000828254610e019190611273565b90915550610e7e9050565b6001600160a01b03831660009081526020819052604090205481811015610e5f5760405163391434e360e21b81526001600160a01b03851660048201526024810182905260448101839052606401610c55565b6001600160a01b03841660009081526020819052604090209082900390555b6001600160a01b038216610e9a57600280548290039055610eb9565b6001600160a01b03821660009081526020819052604090208054820190555b816001600160a01b0316836001600160a01b03167fddf252ad1be2c89b69c2b068fc378daa952ba7f163c4a11628f55a4df523b3ef83604051610efe91815260200190565b60405180910390a3505050565b600060208083528351808285015260005b81811015610f3857858101830151858201604001528201610f1c565b506000604082860101526040601f19601f8301168501019250505092915050565b80356001600160a01b0381168114610f7057600080fd5b919050565b60008060408385031215610f8857600080fd5b610f9183610f59565b946020939093013593505050565b600080600060608486031215610fb457600080fd5b610fbd84610f59565b9250610fcb60208501610f59565b9150604084013590509250925092565b600060208284031215610fed57600080fd5b5035919050565b60006020828403121561100657600080fd5b61100f82610f59565b9392505050565b60008083601f84011261102857600080fd5b50813567ffffffffffffffff81111561104057600080fd5b6020830191508360208260051b850101111561105b57600080fd5b9250929050565b6000806000806040858703121561107857600080fd5b843567ffffffffffffffff8082111561109057600080fd5b61109c88838901611016565b909650945060208701359150808211156110b557600080fd5b506110c287828801611016565b95989497509550505050565b600080604083850312156110e157600080fd5b6110ea83610f59565b91506110f860208401610f59565b90509250929050565b600181811c9082168061111557607f821691505b60208210810361113557634e487b7160e01b600052602260045260246000fd5b50919050565b60006020828403121561114d57600080fd5b8151801515811461100f57600080fd5b634e487b7160e01b600052601260045260246000fd5b6000826111825761118261115d565b500690565b634e487b7160e01b600052601160045260246000fd5b6000826111ac576111ac61115d565b500490565b80820281158282048414176104ca576104ca611187565b634e487b7160e01b600052603260045260246000fd5b6000600182016111f0576111f0611187565b5060010190565b6040808252810184905260008560608301825b87811015611238576001600160a01b0361122384610f59565b1682526020928301929091019060010161120a565b5083810360208501528481526001600160fb1b0385111561125857600080fd5b8460051b915081866020830137016020019695505050505050565b808201808211156104ca576104ca61118756fea2646970667358221220984e5ef0fa9fd8d5d1e3cea6940bbe75c109eec9249d204e3f41a1e33f9614b364736f6c63430008140033",
    "linkReferences": {}
  },
  "methodIdentifiers": {
    "GOVERNOR()": "6dc0ae22",
    "airdropToken()": "4d06068a",
    "allowance(address,address)": "dd62ed3e",
    "approve(address,uint256)": "095ea7b3",
    "balanceOf(address)": "70a08231",
    "batchTransfer(address[],uint256[])": "88d695b2",
    "decimals()": "313ce567",
    "maxSupply()": "d5abeb01",
    "name()": "06fdde03",
    "purchaseTokens(uint256)": "7b97008d",
    "redeemTokens(uint256)": "a6e158f8",
    "redeemValue()": "8e0de8ba",
    "setPostAirdropValue(address,uint256)": "7e81f5dd",
    "setTokenPrice(uint256)": "6a61e5fc",
    "symbol()": "95d89b41",
    "tokenPrice()": "7ff9b596",
    "totalSupply()": "18160ddd",
    "transfer(address,uint256)": "a9059cbb",
    "transferFrom(address,address,uint256)": "23b872dd",
    "withdrawERC20(address,address,uint256)": "44004cc1",
    "withdrawETH(address,uint256)": "4782f779"
  },
  "id": 30
}